:020000041000EA
:101000004005002019100010D11D0010D31D001044
:1010100000040000000000000248854602488047A6
:1010200004E0000040050020BD10001016481749DC
:10103000174A002A07D0920803680B60013A02D0D1
:1010400004300431F8E713481349002906D0890811
:1010500000220260013901D00430FAE70F4810493C
:10106000104A920803680B60013A02D00430043140
:10107000F8E70D4885460D4880470D488047002019
:1010800000210C4A97460000CC4800103006002092
:101090007400000040050020EC000000A047001094
:1010A0000C0000202C01000040050020491E00100B
:1010B000B9100010C1100010C0467047C0467047FC
:1010C00073B501F0D9FD01F05FFC824C8248211C10
:1010D0005C2201F0F1FC2368013304D17F48211C1C
:1010E0005C2201F0E9FC60687D4A431C3ED0A168A7
:1010F0004B1C3BD0E5686B1C38D02669731C35D07F
:101100006369013332D0A069431C2FD0E1694B1CC5
:101110002CD0256A6B1C29D0666A731C26D0A36A62
:10112000013323D0E06A431C20D0216B4B1C1DD01F
:10113000656B6B1C1AD0A66B731C17D0E36B013365
:1011400014D0206C431C11D0616C4B1C0ED0A56CCC
:101150006B1C0BD0E66C731C08D0236D013305D0DB
:10116000606D431C02D0A16D4B1C21D100250221D2
:1011700001261523082015606560A560E560E5611E
:10118000A562E5626563A163E56356496565564DF1
:10119000266023616361A36126626062266339234E
:1011A0003826102026646364A664E0642165A56582
:1011B000E669238C606A5660138108280BD10125EB
:1011C0004A4BD560218D228E268F00201860998091
:1011D000DA801E8112E0162810D1444D0021268DA0
:1011E000D16001222A60AE80238E208FA18DA28E35
:1011F000A68FEB8028816981AA81EE81216C002273
:101200003B4801F0DFF8616C00223A4801F0DAF85F
:101210000022A16C384801F0D5F8384D2169281C0E
:1012200002F075F80126AB68311C9940281C02F0C9
:1012300063F8334D6169281C02F069F8A868311C15
:101240008140281C02F058F82E4DA169281C02F09C
:101250005EF8AA68311C9140281C02F04DF82A4D16
:101260002E7A301C01F03CFF011C281C01F0A7FF66
:10127000616D281C01F0B7FF301C01F031FF011C2B
:10128000281C01F09CFF216D281C01F09EFF301CE2
:1012900001F026FF011C281C01F08CFF1B4960682F
:1012A000E36CA268E568086019488B614A608D604C
:1012B00001F02FFE174E0621301C01F03CFB336875
:1012C000D96B080C0204DA63DD6BA46D2C43DC637C
:1012D000FEE7C046A8050020804F0010004F001018
:1012E00030060020FF0F00005EF2000040050020E5
:1012F0009841001030410010C8400010AC4500106B
:101300005845001004450010EC4400108C050020E6
:10131000A84400106044001010B5012001F04CFCFE
:101320001F4B5A68012A3AD1D8681E4B012810D1A8
:1013300098881D4A8400A0581C490401D8880C6074
:101340008400A0581B890401980082584C60140145
:1013500021E01968012922D15C89134AA000845830
:101360009888240980008058104900012418988921
:101370000C608400A0580409D888800080580001BF
:101380002418D8894C608400A0581B89040998004F
:1013900082581301E41806488C6001F0BAFD10BDB4
:1013A0003006002040050020140600208C05002097
:1013B000A8440010F0B5C54C85B06E460023201C33
:1013C0000F360421337001F0B6FA25680127281C76
:1013D000FC30C269311C3A43C261201C01F09BFA07
:1013E000BB4C2368002B22D13278BA49BA4EBB4895
:1013F0000A70337003702760302A05D1B84FB9499D
:101400003B602360CB6139E0312A05D1B44AB5484D
:1014100017602360C76131E0111C8039CEB20F2EF6
:101420002BD9A02A2AD12360AF4B1F6026E0012BC5
:1014300009D0032B07D0052B05D0072B03D0092B90
:1014400001D00B2B03D13678A348067014E0022B91
:1014500009D0042B07D0062B05D0082B03D00A2B6C
:1014600001D00C2B0AD19C4836789C4902780E702A
:1014700017029E493E430E80013323602668032EE7
:1014800000D0E3E1934A1078112819D1984D012733
:10149000AA68281C9740391C01F033FF934E31880D
:1014A0000805010D281C318001F031FF281C391C72
:1014B00001F022FF002323608A4D34886C6099E29A
:1014C000122819D18B4D0127AA68281C9740391C76
:1014D00001F017FF854E31880805010D281C318069
:1014E00001F015FF281C391C01F006FF00232360C2
:1014F0007C4D3488AC607DE2132817D17E4D0127E6
:10150000AA68281C9740391C01F0FBFE774E3188F1
:101510000805010D281C318001F0F9FE281C391C3A
:1015200001F0EAFE002323603288D5E114281CD1A3
:101530006F4801268368311C994001F0E2FE6D4836
:10154000311C8768B94001F0DCFE6B48311C8268B1
:10155000914001F0D6FE6549684B0888614F04054B
:10156000260D0E801E607E6044E221281AD1644E52
:101570000127B368301C9F40391C01F0C2FE5B4D4F
:101580002988802901D980222A802978301C298045
:1015900001F0BDFE301C391C01F0AEFE00202060C1
:1015A00028885CE022281AD1564E0127B368301CE7
:1015B0009F40391C01F0A5FE4C4D2988802901D996
:1015C00080222A802978301C298001F0A0FE301C5E
:1015D000391C01F091FE002020602A884FE1232869
:1015E0001AD1494E0127B368301C9F40391C01F0C5
:1015F00088FE3E4D2988802901D980222A802978B9
:10160000301C298001F083FE301C391C01F074FE6F
:101610000020206029887FE1242823D1384E01272B
:10162000B368391C9940301C01F06BFE3548816865
:101630000A1C391C914001F064FE3348391C85684E
:10164000A94001F05EFE294C301C2788642F01D987
:10165000642626802178218001F059FE2088214CC3
:101660002061C7E1702813D1E86B1B4F010C1B48A8
:101670000A043E78EA630178EF6B33020B431F43A1
:10168000EF630025214A2560164C1360A365B1E184
:1016900041280CD1154F1E48397800220026398088
:1016A00000F090FE26600F4B3C881C64A2E14228AB
:1016B00032D10E4D002229781648298000F082FE92
:1016C0002988084A00202060516493E1604400109A
:1016D00054050020780500207705002076050020BD
:1016E00034060020A80500205005002074050020C5
:1016F000A846001054460010004600108C0500203B
:10170000AC45001058450010044500106805002045
:10171000984100103041001043280CD1B64DB74815
:1017200029780022298000F04DFE2E88B44B002736
:1017300027609E645EE150281BD1AF4D2F88BE0507
:10174000B30D0E2B00D80F232B802988AD4801F054
:10175000E5FD2988AC4801F0E1FD2988AB4801F09E
:10176000DDFD00222888AA492260A54C8861E0643A
:1017700040E160281DD1A74D2F7A381C01F0B0FC44
:10178000011C281C01F01BFD9B4E33881805010D20
:10179000281C318001F019FD381C01F0A1FC011C4E
:1017A000281C01F007FD002121603288944C22653D
:1017B00020E1612815D1974F0026387A01F090FC7E
:1017C000011C381C01F0FBFC8B4D28888105890D1C
:1017D000381C298001F007FD26602A88884C626544
:1017E00008E1051C7035E9B2032903D8824B8A4D04
:1017F0001A8852E0322808D17F4900220F88874E8C
:1018000022607F4C37802762F4E033280CD17A487D
:10181000834E844B0088844D0127002237601A6074
:101820002880774C08210EE0342800D0E2E0724A8C
:101830007B4F00247B4B10887B4D3C600126704C15
:101840001E60288016216162A062D3E0052E32D18D
:10185000764C2078142809D1674C6D4E2088684B4F
:1018600001050F0D278077609F60C3E0242809D110
:10187000614D6F482978298001F049FD2A88604C24
:101880006261B7E0011C7031CFB2032F07D8624DFF
:10189000594E2B6834881A0422432A60AAE0332860
:1018A00053D0342800D0A5E0534D624B2E88544AC3
:1018B0001E80D6629EE0072E4ED15C4A1578142D0C
:1018C0000DD14D4F52493D885B482E05330D3B806D
:1018D0008B6001F01EFB3A88494CE2608AE0242DBF
:1018E0001DD1454F554D3978281C398001F00FFD29
:1018F000534801268368311C994001F0FDFC4C4897
:10190000311C8468A14001F0F7FCA868311C8140BB
:10191000281C01F0F1FC3988394CA1616AE02F1CC8
:101920006F37FBB2022B03D8334C464D2288B4E705
:10193000332D08D13049444E0888314A0025308083
:101940009063256056E0342D54D12B4C3F492088BC
:101950002B4F088038634DE0092E32D1334A177877
:10196000912F0AD1374F244A3B682B481588190418
:1019700006682943396031603CE0922F0BD1314930
:101980001D4B08681F88244E02043A4335680A60DC
:101990002C68224081E7932F0AD12A49164B086808
:1019A0001F881D4E02043A4335680A602C6873E7AD
:1019B000342F1FD11049264D0E88114C2E8066639E
:1019C00018E00B2E0AD119490E78342E12D10A4D87
:1019D0001D4B2C880A481C8084630BE00D2E09D116
:1019E000124D2C78342C05D1034B1A4A1888044F19
:1019F0001080F86305B0F0BD74050020C8400010E9
:101A0000A8050020A846001054460010004600100B
:101A10008C050020EC4400107005002038060020E2
:101A20003C060020400500204405002078050020E9
:101A3000584500104A050020A84400100445001035
:101A4000AC4500106C05002048050020460500202C
:101A50004C0500204E050020F8B5BC4EBC49356849
:101A600080202A1CFC32D469070200233C430B600F
:101A70000221D461A966D761EB6C20221343EB6489
:101A8000EC6C04200443EC64AD6CB24F802129401F
:101A90003960341C3D1C802900D052E1AE4B1878CF
:101AA000812804D1AD4C01236370AD4805E0822844
:101AB00013D1AA4C0121AB48617001F02BFC000549
:101AC000020D3A602270211C301C00F001FF3F68BB
:101AD000301C3D0A2570211C31E1832804D19F4C24
:101AE00001256570A048E8E7842804D19B4C0122B9
:101AF00062709E48E1E7852804D1984C012060700F
:101B00009B48DAE7862804D1944C012363709948F6
:101B1000D3E78A2809D19848904C8269012395051A
:101B2000A90D637039602170CDE78B2806D18B4CED
:101B300001219248617001F051FBC0E78C280AD165
:101B4000864F01238D487B7001F056FB8005820D86
:101B50002A603A700BE0872810D1804F0120884E10
:101B60007870F269D16B8E05B20D2A603A70201C34
:101B7000391C00F0ADFE2D682D0A97E0882804D1AD
:101B8000764F01237B707F4EEBE7892804D1734F9A
:101B9000012179707C4EE4E78D2805D16F4F7B4A97
:101BA000012078701268E0E78E2804D16B4F012382
:101BB0007B70774A48E08F280ED1764B674F1868C4
:101BC00001267E70012801D1082633E0724A11688F
:101BD000012930D110262DE0942804D15F4F012136
:101BE00079706E4A30E095280CD16A4A5B4F1168D3
:101BF00001207870012932D0674E3368012B37D12C
:101C0000674B33E0962804D1544F01237B70654A1B
:101C10001AE0972812D15F4E504F33680121797036
:101C2000012B01D1002605E05B480268012A02D1A0
:101C30005D490E882E602E683E7098E7982805D181
:101C4000464F0120594A787012888EE7992811D1A1
:101C50005048424F026801237B70012A01D10020C5
:101C600005E04D490E68012E02D1514B18882860BD
:101C70002A687BE790281DD14E4901200E68336801
:101C80003B60364F7870391C201C3B7000F020FE02
:101C90002A68201C110A3970391C00F019FE6E8860
:101CA000201C391C3E7000F013FEED783D70201CA6
:101CB000391C44E0404E3768012F32D13F4E306826
:101CC0000130306000F060FE32683D4D3A4207D18D
:101CD0003C492960286800F0C7FE0028FAD101E0DD
:101CE000394F2F60311C2868062200F083FE5C22E9
:101CF000311C286800F0E0FE184D11230126201C3D
:101D0000291C2B706E7000F0E3FD12202870291C36
:101D1000201C00F0DDFD284A2C4F002414603E609A
:101D20000FE080280DD129490C4D0B680122291C98
:101D3000201C6A702B7000F0CBFD201C291C00F0C9
:101D4000C7FD034C00262660F8BDC0466044001065
:101D500054050020600500207805002006060020BC
:101D6000A84600105446001000460010AC45001074
:101D700058450010044500108C050020EC4400106C
:101D80009841001030410010C84000103406002077
:101D9000380600203C0600204005002044050020B5
:101DA0004A050020460500204C050020480500207B
:101DB0004E0500207005002050050020A8050020D9
:101DC00040060020004F0010804F00103006002019
:101DD000FEE7FEE7FEE7FEE7FEE7FEE7FEE7FEE7DB
:101DE000FEE7FEE7FEE7FEE7FEE7FEE7FEE7FEE7CB
:101DF000FEE7FEE7FEE7FEE7FEE7FEE7FEE7FEE7BB
:101E0000FEE7FEE7FEE7FEE7FEE7FEE7FEE700008F
:101E1000094A10B51368094C1804030E116808D05C
:101E20001802CBB2C118064801F016FB4100216030
:101E300001E0044A226010BD0003014010060020AA
:101E4000000024F40048E80108B5FFF7E1FF08BDF1
:101E5000C36989B2D963836958300278012092003E
:101E600019699040021C0A431A617047F8B5C569A8
:101E7000041C686B0F1C013002F0ACF8391C061C06
:101E80000C4801F0ADFE0B4901F088FB011C301C31
:101E900001F076FD01F06AFB80B2E863A369583473
:101EA0002278012794001969A7403D1C0D431D614C
:101EB000F8BDC0460000C842F0B5021CC06D85B038
:101EC000039003780120002B00D014E2D36907218E
:101ED0001961541DE57F69B24C1C4FD0002D04D10F
:101EE000101C433000782C1C1FE0022902D1161C64
:101EF000443608E00C2902D1161C403603E00E29B6
:101F000003D1161C3F36307809E00A2902D1171C8C
:101F1000363709E0122902D1171C333704E00024B8
:101F2000082902D1171C3E373C78C026B6020004AF
:101F30001F683040774EA4053E4030431860802033
:101F40001F68C6037448344007403C431C60141C9F
:101F500030342678C0201F687406C6046F483440A9
:101F6000384020431860002D08D05C680327012505
:101F70008F408D40BC432F4027435F60961DF47F08
:101F8000674D61B24F1C5ED0002C04D1171C433743
:101F90003F78201C27E0022902D1161C443608E0B5
:101FA0000C2902D1161C403603E00E2903D1161C61
:101FB0003F36377811E00A2904D1101C36300078FA
:101FC000012710E00127122902D1101C333009E04B
:101FD000102902D1101C423004E00020082902D14F
:101FE000101C3E3000781E68BF04B446C02636037D
:101FF0003E404C4F029666463740029EC00537432E
:102000001F6080273F041E683840474F3E403043E2
:10201000161C1860313630781F68C606C02040058F
:102020003040424E3E4006431E60002C0BD010292B
:1020300000D14FE15C68032702208F408840BC43F9
:1020400007403C435C60D01DC47F394E61B2B4464A
:102050004E1C79D0002C04D1171C43373F78201C2C
:102060002BE0022902D1161C443608E00C2902D1CB
:10207000161C403603E00E2903D1161C3F36377874
:1020800015E00A2904D1101C36300078012714E02D
:102090000127112901D1907C0FE0122902D1101CD7
:1020A000333009E0102902D1101C423004E0002036
:1020B000082902D1101C3E3000781E683F050296A8
:1020C000C026B6033E4001961A4F029E00063740D6
:1020D000019E37431F6080271E687F043840674693
:1020E0003E403043161C1860323630781F68460771
:1020F000C020C0053040104E3E4006431E60002CFC
:1021000022D010291AD00327112900D0E9E0012795
:10211000E7E0C046FFFFFCFFFFFFBFFFFFFFFFF947
:10212000FFFFFEFFFFFFF3FFFFFF7FFFFFFFFFE764
:10213000FFFFFFFEFFFFCFFFFFFFFF9F5E688027CF
:102140002E407C0226435E6058696C49171C014092
:10215000596156373C785E69107B01210C4034434D
:1021600088400226171C3040543720433C78802199
:10217000A702C90039400143101C55300478C02023
:102180002702B040384001435961511CCC7F5E6941
:102190006703C0205A4CC101344039402143596182
:1021A000161DF07F5F698024010466023D400E40E9
:1021B0002E435E611F6A557B0F210D408F432F43D5
:1021C0001F62D47C80256705AC035E693C404D4F9F
:1021D0008025374027435F61167D5C69B7054A4E0D
:1021E0008D4034403D402543171C5D6135373D78B7
:1021F0008027EE053D045C693540444E344025435C
:10220000141C5D613434257880245F692E066504D2
:102210003540664637403D435D615F6A941CE57F0B
:102220008F430D40391C29435962012802D1D01C2B
:10223000C67FDE624824177CA55A11891E1C9F6147
:10224000B0365D63D9633068314F146D3843306008
:102250000C3E3568101C2543356058309169047870
:1022600001200E69A500071CAF40374302972E18C6
:10227000071CB740BC46029F664637430235061C22
:10228000AE403D1C3543161C0D61373635785F690D
:102290006E068025AD042E401E4D3D403543161C74
:1022A0005D6138368023DF0033780D68A7400A343B
:1022B000A340BD431F402F430F60393212780F688F
:1022C000154B95072E0C3B4033430B600399087068
:1022D000002010E05E6880272E407C0226435E606E
:1022E000B1E603205C6888408F40011CBC43394044
:1022F0000C435C6028E705B0F0BDC046F498FFFFD2
:10230000FF9FFFFFFFFFDFFFFFFFBFFFFFFF7FFF1D
:102310000F0F0000FFFFFFFDFF3FFFFFF0B5C46D93
:10232000021C23780120002B30D0022B2ED0D36941
:10233000174D191CB0310D6091698027CE68874018
:102340003743151CCF6058352D78071CCE68AF4039
:102350003D1C3543CD60517C80255E694F04A90248
:102360000C4D0F4035403D435D610832D67F002E55
:1023700003D1D9680843D86005E0586803221640A5
:10238000904306435E60022323700020F0BDC046E8
:102390000F0F0000FFFFFDFF38B50024084D651941
:1023A0002868FFF789FD002805D128680378012BEC
:1023B00001D1FFF7B3FF04340C2CEFD138BDC04678
:1023C0004406002030B5031CC06D04780120002CA9
:1023D00017D01D1C9C69583582420AD0DA698BB22D
:1023E000D3632D782169AA00904008432061002022
:1023F00007E02978051C8B0062699D40291C114368
:10240000616130BDF7B500231E4AD2581178567865
:102410004CB2B601002C14DA0F20084008388408AA
:10242000194FA500E81903252940A940FF25446854
:102430002F1C8F40BC4335408D40211C29434160F7
:1024400013E0A5081148C035AC00032527582940E2
:10245000A940FF25019700912F1C8F40354001991D
:10246000009EB943B54029432150D678012E05D1AD
:1024700010781F220240054C9640266004330C2B36
:10248000C2D1F7BD5006002018ED00E000E100E0E9
:10249000054B00225868054B4260C169C16158680C
:1024A0004260026902617047144200100C42001041
:1024B00070B500214A4B5B58D8695A78012803D17E
:1024C0005D681C6C95406560DE68012E05D11C6C52
:1024D0000225666F954035436567012823D1032A9D
:1024E00005D81D6CD200286903325C6A49E0161FCA
:1024F000032E05D81A6CF600546903365B6A4DE06A
:10250000151C083D032D05D81E6CED00B46903357C
:10251000586A51E00C3A032A5DD8186CD200C4699D
:1025200003325B6A54E0002855D1186A01280FD1A4
:10253000072A04D81E6C986B346C04430EE0151CFB
:10254000083D072D22D81E6CDC6B706C204316E012
:10255000072A0CD81E6C986B346C84433464032AAD
:1025600014D81D6CD200286903325C6909E0141C80
:10257000083C072C0AD81E6CDD6B706CA843706495
:1025800004E09440221C02432A6124E0161F032E1B
:1025900009D81A6CF60054695B690336B3401E1CF7
:1025A0002643566117E0151C083D032D08D81E6C04
:1025B000ED00B46958690335A8402043B0610AE0D2
:1025C0000C3A032A07D8186CD200C4695B6903323D
:1025D00093402343C36104311C2900D06AE770BDD6
:1025E0005C060020184B194A5868016E0A400266C2
:1025F0008369174A836117484368196E0A401A664F
:10260000986940219861144B5868026E8A430266AB
:10261000436980214361114843681A6E8A431A66F0
:102620005869042158610E4B5868026E8A4302664D
:102630000369022103610B4843681A6E8A431A66D4
:10264000186918617047C04658440010FFFEFFFF2C
:10265000FFFDFFFF504400104844001040440010AC
:1026600038440010304400100368818ADA6B0A4352
:10267000DA638269642A01D8DA6B03E0D96B8022BD
:1026800092020A43DA63C11CCA7F002A04D0D96BC4
:102690008022D2020A43DA63011DCA7F002A04D0D5
:1026A000D96B802212030A43DA63811DCA7F002A94
:1026B00004D0D96B802252030A43DA63411DCA7FDA
:1026C000002A04D0D96B802212040A43DA6307304F
:1026D000C07F002804D0D96B802250040843D863FF
:1026E0007047000038B504680422236C051C93432E
:1026F0002364E06803210843E0602269298D802378
:10270000180210438A05930D1843A96920616A8D48
:10271000204B6069642902D89021890101E0C02121
:10272000C9011204014313400B436361636B1A48F0
:10273000A02203436363A16BD3000B43281CA36354
:10274000FFF792FF287F00280AD0A87F231CFC33C4
:10275000FC22D9680002920102400A43DA6004E0D8
:10276000A16C802293010B43A3646B7F002B0CD0E0
:10277000231CFC331869ED7F80214905FC220143AD
:102780002802950105400D431D61236C04210B4374
:10279000236438BD0000FF0303033F0710B54368FF
:1027A000027A012459689440221C0A435A60007A34
:1027B000032808D8C2000332182019699040041C6D
:1027C0000C431C6123E0011F032908D8C900033111
:1027D00018205A698840041C14435C6117E0041CEB
:1027E000083C032C08D8E100033118209A6988407E
:1027F000041C14439C610AE00C38032807D8C2006B
:1028000003321820D9699040041C0C43DC6110BDD0
:1028100010B5C368027C012459689440221C0A4305
:102820005A60007C032808D8C200033218201969B6
:102830009040041C0C431C6123E0011F032908D8AD
:10284000C900033118205A698840041C14435C6194
:1028500017E0041C083C042C08D8E10003311820C0
:102860009A698840041C14439C610AE00C380428CF
:1028700007D8C20003321820D9699040041C0C43C9
:10288000DC6110BD0E4A10B5C0230E4C53622168A6
:102890000D4801432160236908210B43236120680F
:1028A0004000FCD4C3245462084C2068FFF776FF34
:1028B0002068FFF7ADFF2068FFF714FF10BDC0468A
:1028C00000000140000301400000F03F78060020B6
:1028D00030B5036800229C6CA5071AD4007F904293
:1028E0000DD0181CFC308569EC0412D44A780878A5
:1028F0001402211CC02501436A00995008E09D6B19
:102900002D0606D44A78097814020C430433DC6798
:102910000122101C30BD10B5427F0368002A06D08A
:10292000FC339C690020240704D4186A00E0586D29
:102930000870012010BD0368042904D80A31012061
:102940008840D8640DE02022062909D002220529FA
:1029500006D00122082901D8073900E001398A4050
:10296000DA647047074BC022D86891018180838860
:10297000802291011943818083888022510119436B
:10298000818070478C440010064B8022D8689301E8
:10299000818880220B438380818853010B4383808D
:1029A0007047C0468C44001010B50E4BFF24DA6807
:1029B0009388A3435124234393800023CC581C5075
:1029C0000433102BFAD11088C107FCD4064B074AF8
:1029D0001968074C0A4022431A6018684400FCD466
:1029E00010BDC0468C44001000030140FFFF0FC023
:1029F0000000A02AF0B51B4B041CD86885B00190DC
:102A00000291171C5D6882880688018801208C4627
:102A1000AC4225D39B689C4222D8651E39016D18B3
:102A20009D421DD823071BD10640D0B262469307B2
:102A30000643D90F0E4301D0022011E0251C0320CC
:102A4000BE420DD00298021B5119281CFFF7ACFFA3
:102A5000019B103519880807800FEDD10136EFE78B
:102A600005B0F0BD8C4400100F4B13B55A6801241B
:102A7000904217D39968884214D88023A3401A68DB
:102A8000904780214B0298420BD0084A904201D1D6
:102A9000022407E006498842FAD0064B984201D149
:102AA000F6E70024201C16BD8C44001001000180B4
:102AB0000500018006000180F7B51A4D031CEC6883
:102AC000A6882788B4466E6820880096009E0190EC
:102AD0000120B34224D3AD680095AB4220D85E1EDE
:102AE000B518009EB5421BD80740019E6046C5B28E
:102AF000022006402F4375082F4311D1D7181D1C03
:102B00000320BD4205D02E78C81A46550135002055
:102B1000F7E723882288DC0691060C4300D50220C3
:102B2000FEBDC0468C44001038B51D4B012118680D
:102B30001C4A031CFC339C690C4205D054681D6A76
:102B4000013415605460D961856C17496D0710D543
:102B5000164C174DC464002050600D609C6924071A
:102B600002D4186A1060F9E71D698020C4052C435F
:102B70001C6154684868651E85420FD30630854243
:102B80000CD21268D5B20A6820C20A60844205D10C
:102B90001969084C0C401C61FEF7BEFB38BDC046ED
:102BA0009C440010800500207C060020FFFF0100EF
:102BB00014060020FFFFFFBF074B421E9A4208D8B1
:102BC0008022811D9300994203D804494860002067
:102BD00001E0012040427047FF0100007C06002018
:102BE0002049C02210B54A621F4A204B10690824B0
:102BF00020431B68106110684400FCD4C3224A6261
:102C0000196C022291431964DC6803200443DC60E0
:102C10001C6980210802204318611C6950210C4363
:102C20001C6158699024A10101435961586B8124AA
:102C30006100014359635C6B0D4804435C63D96BCD
:102C40000C4C80202143D963191CFC310C694005D0
:102C500020430861196C08240A431A64DA6B224382
:102C6000DA6310BD00000140000301409C440010E5
:102C7000000007070306000008B500F041F900F066
:102C80008DF900F031FA00F08DFA00F0BBFA00F097
:102C90003FF900F0EFF9FFF77FFBFFF709FCFFF7C3
:102CA000A1FC00F049FB00F0C5FBFFF7ABFBFFF711
:102CB00097FFFFF7EDFBFFF7E5FDFFF753FE00F091
:102CC00001F808BDF0B59021C905086C0B6C0F2206
:102CD00085B0934302900B64724B04261C6C1D6CF0
:102CE000039495431D64CF690725AF433743081C00
:102CF000CF61FC3004698027FE0534430461C76856
:102D0000694C6A4E27403743C760076927400197DF
:102D1000019E674F3E430661D8690527A8433843A3
:102D2000D8611E6A181CAE4304252E431E62FC3077
:102D300007698026F5053D4305619E695D4D802745
:102D40002E40BF023E439E610669802735407E02C9
:102D500035430561C568584F25403D43C560066948
:102D600080256F0434403C430461086C029C90430E
:102D7000144020430864196C039E9143164031436C
:102D800019644E4B01271D68F02095433D431D609B
:102D90001C68102184434A4E0C431C603368494C24
:102DA00093433B4333603568474B85430D43356060
:102DB00026689643374327602768B0228743394304
:102DC000216018698021084318615D69B82788244B
:102DD000BD4325435D615E693C48110206400E43D8
:102DE0005E615D693A4A210415400D435D619D694C
:102DF000A026310415400D439D61DD69BD432C4380
:102E0000DC61DE69802421023143D961314BB02677
:102E10001D699021BD432F1C37431F611C690D02A2
:102E2000204028431861186990273C04024022433F
:102E30001A611969284A9025280611400143196131
:102E4000264B274C1F6EB8213C401C669D69080428
:102E5000284398611F6E234C31063C401C669D69D7
:102E6000214F2A400A439A61204A70239068204DDE
:102E700018439060BC6820221C43BC60AE681D49AA
:102E80009E431643AE6088681B4F9843104388608A
:102E9000BC681A4D9C432243BA60AE683343AB60B2
:102EA00005B0F0BD00020048C0FFFFF806000001B9
:102EB00004000001FFFFF8FF0200000100020448C7
:102EC000000304480004044800000440FF47FFFFDB
:102ED000FFFF47FF00010440FFFFFF4700020440DF
:102EE000FFFBFFFFFFF7FFFF640003503C000350B0
:102EF000780003508C000350A0000350B40003502E
:102F0000024B01211A6E8A431A6670470002044080
:102F1000704738B5041C00680D1C002806D00968ED
:102F200000F0F5F92068A96900F0F8F96068002858
:102F300006D0696800F0EBF96068A96900F0EEF965
:102F4000A068002806D0A96800F0E1F9A068A96986
:102F500000F0E4F9E068002806D0E96800F0D7F94D
:102F6000E068A96900F0DAF92069002806D029692B
:102F700000F0CDF92069A96900F0D0F96069002856
:102F800006D0696900F0C3F9A969606900F0C6F963
:102F9000206AA16900F0B0F938BD000070B5314C6D
:102FA000C0236362606A4007FCD42F4B80221968FB
:102FB00055020D431D601E681A68FF218A431A607E
:102FC0001D682A4A30041543060E1D601868264DF8
:102FD0004000FBD4012E04D1C3236362FEF718FF27
:102FE00070BDFF2108022D682149002E18D105422D
:102FF00009D11C680C401C601868104318601D68DB
:103000006C00FCD4F5E71868802501406E00314360
:10301000196019680A431A601A685600FCD4DBE785
:103020002840000A042810D90326B04304301D6844
:10303000800806060D40360C35431D601D6815439B
:103040001D601E687600FCD4ECE71E6880203140CD
:1030500045002943196019680A431A601A6850002C
:10306000FCD4B9E700000140000301400000F03F3C
:10307000FF00FFFF70B5154C2368002B25D1FFF72B
:103080008DFF134802685168022916D8114B9068C9
:103090001D69054211D11049C0264E621D680F4EB0
:1030A00035431D6001261D698640301C2843186188
:1030B0001D686D00FCD4C3234B6216688022F16842
:1030C000500008430125F060256070BD8805002090
:1030D0008406002000030140000001400000F03F92
:1030E00001238340181C70471748C02130B5416246
:1030F0001649174B0C6910252C431A680C610C6893
:103100006500FCD4C32141621C8998792104C50360
:10311000988829430143516015689C7AD97A2543E0
:103120009C7B88000543A1020D4315609D891468AE
:1031300028040849084D084025409C7C1B8A05430B
:103140001560D462936230BD00000140000301406D
:10315000D84400100000FF0FFFFF00F0F8B5041C7A
:103160004568017C637CAA6806685F04080407431D
:103170001743AF60627A012A05D1207A376AFFF7D8
:10318000AFFF074337622968606901432960207AED
:10319000776AFFF7A5FF07437762AE68E4683443B8
:1031A000AC60F8BD08B5024B1868FFF7D7FF08BD43
:1031B0008806002003685A6A114359627047036801
:1031C00009045A6A114359627047436809051A682D
:1031D000080D120B110308431860704743685868C4
:1031E0000105080D7047436889059A68880D920AA1
:1031F0009102084398607047436898688105880D7C
:1032000070470000F7B500273A4BDC59221C2668AE
:103210003732A0681378316983400B43211C383161
:103220000A786568824011040B433361231C3933EB
:10323000197872698140081C1043231C70613C336B
:103240001978013B1B78AA68C8029902014311430F
:10325000221C36321078221C353243021078221C90
:103260003432194303021078221C3D321943C30142
:1032700010781943C3001943A960A968206C07227C
:1032800091430240636C0A43AA60A26C1904114383
:10329000E9602B69206DE16C03430A0413432B6141
:1032A000E369012B09D1606AA169E3684218206AC9
:1032B00019689040021C0A431A60231C28331978AD
:1032C000A068012903D1F26881401143F160236BAA
:1032D00004372B60B1690191FFF702FF019AE46A9C
:1032E0001043B061AE6820043043A860182F8BD122
:1032F000F7BDC0468C06002003689A6911439961A6
:103300007047036809049A691143996170474368DB
:103310001960704743685868704700004368044A62
:10332000090498681140034A0240114399607047AC
:103330000000FF03FFFF00FC10B50549054B4A687C
:103340000878D45A0449000221400143D15210BDEB
:10335000FC4600105C0B0000FFFEFFFF304A30B55A
:10336000436890421BD12F4A0125995A0478A943FA
:10337000214399528478995AAC400225A9432143AC
:103380009952995A44780825E400A9432143995257
:10339000995AC47830252401A94321439952224ADD
:1033A00090421CD1B6210A01995A01250478A943FB
:1033B000214399528478995AAC400225A94321436C
:1033C0009952995A44780825E400A9432143995217
:1033D000995AC47830252401A94321439952134AAC
:1033E00090421BD1124A0478995A0125A9432143DE
:1033F00099528478995AAC400225A94321439952A5
:10340000995A44780825E400A94321439952995ACE
:10341000C07830240501A1432943995230BDC046EC
:10342000144700105C0B00000C470010044700100C
:10343000640B000008B50548FFF790FF0448FFF74C
:103440008DFF0448FFF78AFF08BDC04614470010EF
:103450000C47001004470010002934D0012300223B
:1034600010B488422CD301242407A14204D2814203
:1034700002D209011B01F8E7E400A14204D2814213
:1034800002D249005B00F8E7884201D3401A1A4390
:103490004C08A04202D3001B5C0822438C08A042C7
:1034A00002D3001B9C082243CC08A04202D3001B7D
:1034B000DC082243002803D01B0901D00909E3E7F7
:1034C000101C10BC7047002801D00020C04307B476
:1034D000024802A14018029003BDC0461900000036
:1034E0000029F0D003B5FFF7B9FF0EBC4243891A9B
:1034F0001847C0467047C0468446081C6146FFE72F
:103500001FB500F0F5F9002801D40021C8421FBD05
:1035100010B500F07DF94042013010BD10B500F04B
:10352000E7F9002801DB002010BD012010BDC046D6
:1035300010B500F0DDF9002801DD002010BD0120EC
:1035400010BDC04610B500F08BF9002801DC00204A
:1035500010BD012010BDC04610B500F081F9002853
:1035600001DA002010BD012010BDC0469E2110B51B
:10357000C905041CFFF7F0FF002803D1201C00F050
:1035800009FD10BD9E22201CD10500F029FB00F092
:1035900001FD80231C060019F3E7C046F0B55F4625
:1035A00056464D464446F0B44502440083B00E1CD6
:1035B0006D0A240EC70F002C07D1002D00D091E01A
:1035C000042101228846924609E0FF2C55D0802331
:1035D000180400210543ED007F3C88468A46331CD1
:1035E00058007602D90F760A000E8B464CD1012284
:1035F0009446002E00D081E05B467B406246414607
:1036000001930A430F2A50D9201A69018146750196
:10361000A94200D3B3E00122534299441B2400265F
:103620000127621E381C10404B007600002900DA8A
:10363000A9E09D4200D8A6E0013C002C00DCABE0F4
:1036400000280CD0191C76005B00002901DB9D428C
:1036500001D85B1B3E43013C002C00DC9CE0590080
:103660007200002B01DB8D4201D8491B3A43013C1B
:103670004B0056000029EADAEBE7002D2DD1082097
:10368000022180468A46AAE7FF2820D08022130420
:1036900000211E438C465B467B4062464146F60055
:1036A0007F3801930A430F2AAED8564992008A58B0
:1036B0009746019BFF260025F0052843DE0730438F
:1036C00003B03CBC90469946A246AB46F0BD331CC5
:1036D0005A1E934102339C468EE70C2203239046E8
:1036E0009A467CE7281C00F0C9FC7622441F53420E
:1036F000A5401C1A00208046824670E7301C00F06E
:10370000BDFC7623411F8E405A420021101A8C4680
:1037100072E700233C4DFF26CEE75F46351C01973C
:103720006346022BC5D0032B63D0012B43D04946FF
:103730007F31002935DD0F272F40042F00D00435BD
:103740002B0103D5314A494615408031FE29B0DCB2
:10375000A801450ACEB2019BAEE700260025ABE7E3
:103760008020C1030D4211D00E420FD10E437302CF
:103770005D0AFF265B469FE701975346D1E7491B49
:103780001A2401264CE75B1B3E4355E70D436A02B2
:10379000550A3B1CFF268FE71D1C6B1E9D413543C0
:1037A000C5E77E2467424A46B91A1B2908DD019BFA
:1037B0000026002580E7019D00262B4000257BE7A1
:1037C0004E469E36281CB5402B1C5D1EAB41C840A2
:1037D00003430F251D40042D00D004335A0103D5A7
:1037E000019B0126002567E79C01650A019B0026D5
:1037F00062E78027FC0325436E02750A019BFF26C2
:103800005AE7C0461C470010FFFF7F00FFFFFFF78D
:103810004302420070B55C0AC60F130E48024A000C
:10382000450A120EC90FFF2B05D0FF2A08D0012030
:1038300093420BD070BD0120002CFBD1FF2AF6D1A2
:103840000120002DF6D101209342F3D1AC42F1D1F9
:103850008E4203D0002BEDD1002CEBD10020E9E704
:10386000F0B5430242004F00C60F48025C0A450A09
:10387000130EC90F3A0EFF2B26D0FF2A29D0002B9A
:103880000CD1604260418446002A0AD0002816D13B
:103890008E4221D0002E14D1012014E0002AF7D14D
:1038A00094466F426F416046002805D1002FEFD04B
:1038B0000120002E07D004E00020002F03D10029B2
:1038C000EAD101214842F0BD002CD6D0022250425C
:1038D000F9E7002DD3D0F9E79342DBDC04DBAC42FF
:1038E000D8D80020AC42EED2002EEAD00120EAE780
:1038F000F0B5430242004F00C60F48025C0A450A79
:10390000130EC90F3A0EFF2B26D0FF2A28D0002B0A
:103910000FD0002A14D194466F426F4160460028B0
:1039200014D00020002F03D100290DD101214842DD
:10393000F0BD604260418446002AEDD00028F3D1FA
:103940008E4211D0002EF1D10120F1E7002FF7D0E7
:103950000120002EECD0E9E70220002CE8D1D4E7CA
:103960000220002DE4D1D2E79342EBDC04DBAC4231
:10397000E8D80020AC42DBD2002ED7D00120D7E718
:10398000F0B55F4656464D464446F0B44502460003
:1039900083B00F1C6D0A360EC40F002E06D1002D09
:1039A00070D1042101228846924609E0FF2E43D0BF
:1039B0008023180400210543ED007F3E88468A4697
:1039C000381C43007F02C10F7F0A1B0E8B463AD181
:1039D0000121002F62D158466040424601900A43BF
:1039E0000F2A3FD92C04F018260C3B041A0C311C6A
:1039F00051433F0C2D0C7E436A438146080C361818
:103A00002C1CB3187C439A4200D99AE009041D0487
:103A1000080C2E18B5011B0C691E8D41B20EE7185B
:103A20001543BC0125432B014BD501202840012122
:103A30006D088944054344E0002D1ED10820022171
:103A400080468A46BCE7FF2B12D080221004074331
:103A50005846002160404246FF007F3B01900A43E8
:103A60000F2ABFD890005B4A84466244106887469C
:103A7000391C4A1E91410231ADE70C2203239046C6
:103A80009A469DE7281C00F0F9FA7622461F534219
:103A9000B5401E1A00208046824691E7381C00F08F
:103AA000EDFA7621431F4A429F400021131A92E704
:103AB0000194514602292CD0032900D180E001292C
:103AC00048D04E467F36002E51DD0F242C40042C6A
:103AD00000D004352A0103D53F494E460D408036BB
:103AE000FE2E3DDD019B01241C40FF210025C80561
:103AF000E2072843104303B03CBC90469946A246D7
:103B0000AB46F0BD0024354DFF21F0E751460229B8
:103B1000D2D1019D01242C40FF210025E7E75E461C
:103B20003D1C0196C6E73D1CC4E78026F3031D42F9
:103B30000BD01F4209D11F437A02550A5C46FF2170
:103B4000D5E780225702E41960E71D436F027D0A22
:103B5000FF21CCE7019B00251940CCB20021C6E72C
:103B60000198AD0101246D0AF1B20440BFE77E2641
:103B700073424A469F1A1B2F05DD019D01242C40EC
:103B800000210025B3E749469E312C1C8D402E1C98
:103B9000FC40751EAE4126430F203040042800D063
:103BA0000436700105D5019F01243C400121002508
:103BB0009DE7019AB30101245D0A1440002196E7B4
:103BC0008022D00305436C020199650A01240C4050
:103BD000FF218CE75C470010FFFFFFF7FFFF7F002E
:103BE000F8B5430245004F024C00C20F98098446C5
:103BF0002D0E200EC90FBF09FF2854D00126714099
:103C00008A423BD02C1A002C00DC89E0002825D108
:103C1000002F4BD16E1C2C1C6346151C0F221A4022
:103C2000042A00D004338027F904012219402A40D5
:103C3000002906D0FF2E00D181E0B14D341C2B406D
:103C40000136F6B2DD08012E62DD6B025D0AE4B2D8
:103C5000E4052543281CD2071043F8BDFF2D51D0A1
:103C60008021CB041F4301261B2C70DD67462C1CD2
:103C7000BB1B151C580122D4661CCFE72E1A002E40
:103C800076DD002832D0FF2D3CD08024E1040F43A4
:103C900001231B2E00DCD1E063442C1C58017AD494
:103CA000661C151CBAE7002FAAD1A7E7013C002C1F
:103CB0006DD163462C1CDB1B151C5801DCD59A0109
:103CC0009609301C00F0DAF905388640844239DC68
:103CD000001B1F231A1A331C311C441C9340E14063
:103CE0005E1EB3410B430126002497E7002F00D14D
:103CF00090E7013E002E03D164463B192C1CCDE712
:103D0000FF2DC5D1151C802263465600FF2485E790
:103D1000002D9CD0002C28D08020C7033D4394E781
:103D2000002C45D16B1CD8B2012800DC90E0644621
:103D3000E61B730157D53E1B2C1C0D1CC1E7FF244D
:103D4000002585E76E4B241A3340661C66E7381C55
:103D50002021E0400C1BA7403E1C771EBE410643BD
:103D600067462C1CBB1B151C84E769024D0A6FE7D4
:103D7000002E79D16C1CE0B201284BDDFF2C00D164
:103D800098E061467F18AE1C7B08151C46E7FF2DA6
:103D900000D068E7B6E7671CFF2F36D058480121EE
:103DA000194003405B08A61C0B433C1C151C35E75F
:103DB0006642002D1ED0FF286FD080256246EB049E
:103DC0001A43944601251B2E09DC62462023F2404B
:103DD00064469E1BB440251C6C1EA54115437B1BED
:103DE000041C0D1C69E7002E0CD1002201260423BF
:103DF000002426E76446002C55D1461C3B1C041CBD
:103E00000D1C0BE72C1C151C5BE780235E00FF24B8
:103E1000042316E7002D00D08DE06546002D00D16B
:103E2000ADE0002F00D181E07B195C0100D47EE081
:103E3000334F151C3B4002260124EFE6381C20239B
:103E4000F0409E1BB7403B1C5F1EBB41034323E772
:103E5000002D15D16546002D47D1002FC5D03B1C44
:103E60000D1C01260024D9E67642002D26D1654698
:103E7000002D00D07DE0461C3B1C041C151CCDE62B
:103E80006546002D40D1002F07D1802100224E0031
:103E90001C4BFF24D5E6FF2894D180203B1C0D1C31
:103EA0004600FF24BAE6013E002EF4D13B1B0D1C58
:103EB000041C02E780256E000423C2E6FF2852D0CE
:103EC00080246146E30419438C4601231B2E09DC40
:103ED00020216446F44065468E1BB5402B1C591EBC
:103EE0008B412343DB19041CD8E6002F1ED0EB1BAB
:103EF00058014BD57B1B01260D1C00248EE6C046C5
:103F0000FFFFFFFBFCFFFF03002F00D1FAE680203C
:103F1000EB08C403234237D0FF08274234D13B1CAF
:103F20000D1C8022DB005600FF2477E66346151C3B
:103F30000126002472E66446002C14D0002F00D124
:103F4000E0E68023E608D803311C064203D0F908D6
:103F5000014200D0311C151C8022CB005600FF24EA
:103F60005CE6FF28B1D180203B1C151C4600FF24D5
:103F700054E6013E002EF4D17B19041C8EE63B1C56
:103F8000151C0126002449E6151CCAE7002B00D1A8
:103F90002BE7CCE743024200590A130EC20F002060
:103FA0007E2B0DDD9D2B0CDC802000040143952B26
:103FB0000ADC9620C31AD9404842002A00D1081CC6
:103FC000704703495018FBE7963B9940F4E7C04619
:103FD000FFFFFF7F10B5041E34D000F04FF89E2382
:103FE0001B1A962B07DC083884406402610ADBB296
:103FF000D805084310BD992B0ADD021C1B32211C79
:1040000091400A1C511E8A410521091ACC401443D3
:1040100005281ADC184A0F2122400C40042C00D03D
:104020000432510105D59F24231AFF2B21D01248B9
:104030000240591CCCB2D208012C09DD5002410AC1
:10404000DBB2D5E700230021D2E7421F9440E1E72D
:10405000002A0BD0002B06D08021CC032243520231
:10406000510ADBB2C4E75002410AC1E7DBB20021CA
:10407000BEE7FF230021BBE7FFFFFFFB1C2101235D
:104080001B04984201D3000C10391B0A984201D33B
:10409000000A08391B09984201D30009043902A219
:1040A000105C40187047C046040302020101010180
:0840B000000000000000000008
:1040B80060CFFF7F010000006CCFFF7F0100000090
:1040C8000100000000007A413800000000000001F3
:1040D800000000000000000000000448000204483E
:1040E80000000F000212FF000102000000000000A3
:1040F80000000000010000010000010003000000B2
:1041080000000000030000007F020000FFFF000025
:104118000000000000010000010000007C050020F4
:10412800511E00106D1E00100100000000007A41B1
:10413800390000000000000100000000000000003D
:10414800000004480003044800000F000212FF00AA
:104158000102000000000000000000000100000152
:104168000000010003000000000000000300000040
:104178007F020000FFFF00000000000000010000B7
:10418800020000007D050020511E00106D1E001069
:104198000100000000007A41380000000000000122
:1041A800000000000000000000000448000404486B
:1041B80000000F000212FF000102000000000000D2
:1041C80000000000010000010000010003000000E1
:1041D80000000000030000007F020000FFFF000055
:1041E8000000000000010000030000007E05002020
:1041F800511E00106D1E00100B0300010A03000180
:10420800090300010000000000000440000D000048
:104218000000044002000000000000000000000050
:104228000000000000000000000000000000000086
:104238000000000000000000000000000000000076
:104248000000000000000000000000000400000062
:104258000000000000020440000000000000000010
:10426800000700000000000000000000000000003F
:104278000000000000000000000000000000000036
:104288000000000000000000000000000000000026
:1042980000000000000000000000004000000000D6
:1042A80000000440000000000000000000050000BD
:1042B80000000000000000000000000006000000F0
:1042C80000000000000000000100000000000000E5
:1042D80000000000000000000000000000000000D6
:1042E8000000000000000000000000000000044082
:1042F80000000000000000000008000000000000AE
:1043080000000000000000000000000000000000A5
:104318000000000000000000000000000000000095
:104328000000000000000000000000000000000085
:10433800000000000400000000000440000000002D
:104348000000000001000000000000000000000064
:10435800000000000600000000000000000000004F
:104368000100000000000000000000000000000044
:104378000000000000000000000000000000000035
:1043880000000000000104400000000000000000E0
:10439800000900000000000000000000000000000C
:1043A8000000000000000000000000000000000005
:1043B80000000000000000000000000000000000F5
:1043C80000000000000000000000000040000000A5
:1043D800000004400000000000000000000A000087
:1043E80000000000000000000000000004000000C1
:1043F80000000000000000000100000000000000B4
:1044080000000000000000000000000000000000A4
:104418000000000000000000000000000000044050
:10442800000000000000000002010000000204403B
:1044380002020000000204400207000000020440DB
:1044480002060000000204400209000000020440C5
:104458000208000000020440000200480002044074
:104468000B000000000204400A0000005E79000012
:1044780064000000010100000101010001000000CA
:1044880000020F0000010000004F0010FF4F001055
:104498000000054000000048000000000000000087
:1044A800A846001054460010004600100000000006
:1044B800000000000000000038000000EC4400107C
:1044C800D84400100000044800000000020000006A
:1044D8000000035050000000DB000000C80000008E
:1044E8000000000000000350940103500201000086
:1044F8000000000000000000FF0F00000000035053
:1045080064000350020000000000044000000000A6
:104518000600000013000000010000000000000079
:104528001400000001000000000000001500000059
:104538000100000000000000000000000200000070
:1045480027000000FF00000000000000000000003D
:1045580000000350B40003500600000000000440AF
:10456800000000000C000000030000000100000033
:10457800000000001800000001000000000000001A
:10458800150000000100000000000000000000000D
:104598000200000027000000FF00000000000000EB
:1045A80000000000000003503C0003500000000021
:1045B80000000440000000000400000003000000A8
:1045C80001000000000000001400000001000000CD
:1045D80000000000150000000100000000000000BD
:1045E800000000000200000027000000FF0000009B
:1045F8000000000000000000000003507800035095
:10460800030000000000044000000000000000005B
:10461800030000000000000000000000000000008F
:104628000100000010000000000000000000010070
:10463800000000000001000002000000030000006C
:10464800C7000000000000008400000000000350C4
:104658008C0003500400000000000440000000002B
:10466800000000000300000000000000000000003F
:104678000000000001000000100000000000000021
:10468800000001000000000000010000020000001E
:1046980003000000C7000000000000004200000006
:1046A80000000350A0000350050000000000044073
:1046B80000000000000000000300000000000000EF
:1046C80000000000000000000100000010000000D1
:1046D80000000000000001000000000000010000D0
:1046E8000200000003000000C700000000000000F6
:1046F800000000000000000000050140010000006B
:104708000005014001000000000501400100000013
:104718000005014008360010B23600105A37001064
:104728001A3700105A370010123700105A37001085
:104738001A370010B2360010B236001012370010C7
:104748001A370010783700107837001078370010C3
:1047580060370010E4390010263B0010263B00109B
:104768001E3B00100C3B00100C3B0010043B0010DB
:104778001E3B00100C3B0010043B00100C3B0010CB
:104788001E3B0010B03A0010B03A0010B03A0010CA
:044798002A3B0010A8
:1047A0002C488746000000000000000000000000C8
:1047B00000000000000000000000000000000000F9
:1047C0002548874600000000000000002348874677
:1047D00023488746234887462348874623488746F9
:1047E00023488746234887462348874623488746E9
:1047F000000000000000000021488746214887464D
:1048000021488746214887462148874621488746D0
:1048100021488746214887462148874621488746C0
:1048200021488746214887462148874621488746B0
:10483000214887462148874600000000000000000C
:1048400000000000000000001D4887461D48874604
:104850001D488746D31D0010D51D0010D71D001020
:10486000D91D0010DB1D0010DD1D0010DF1D001024
:10487000E11D0010E31D0010E51D0010E71D0010F4
:10488000292B0010B5130010591A0010031E001038
:10489000051E0010071E0010E91D0010EB1D001082
:1048A000ED1D0010EF1D0010F11D0010F31D001094
:1048B000F51D0010F71D0010F91D0010FB1D001064
:0C48C000091E00100B1E00100D1E001041
:1048CC0001000000010000000100000001000000D8
:1048DC00008F00109841001030410010C8400010AB
:1048EC00084200100442001000420010E443001083
:1048FC00984300104C43001000430010B4420010C9
:10490C00684200101C420010604400101406002085
:10491C0001000000CC440010EC440010A84600102C
:10492C005446001000460010AC45001058450010CD
:04493C00044500101E
:0400000510001019BE
:00000001FF
